:020000040800F2
:1000000078600120790200085D61000885580008C9
:1000100035610008A50B00082D7E000800000000D7
:100020000000000000000000000000009D0100082A
:10003000F114000800000000F1010008BD72000882
:10004000930200089302000893020008930200083C
:100050009302000893020008F3140008FD1400083E
:10006000930200089302000893020008A5140008F8
:10007000930200089302000893020008930200080C
:1000800093020008930200089302000893020008FC
:100090009302000893020008930200080715000865
:1000A0009302000893020008DD7300089302000821
:1000B00093020008930200089302000893020008CC
:1000C00093020008930200089302000893020008BC
:1000D0009302000893020008897C0008930200083C
:1000E000930200089302000893020008930200089C
:1000F000930200089302000893020008930200088C
:10010000930200089302000893020008930200087B
:100110009302000893020008ED73000805740008BC
:10012000930200089302000893020008B514000827
:10013000930200089302000893020008930200084B
:1001400093020008930200089302000800000000D8
:10015000930200089302000893020008930200082B
:10016000930200089302000893020008930200081B
:100170009302000893020008000000000000000045
:100180009302000893020008DFF80CD000F020FC76
:100190000048004789A30008786001202B4B1968AC
:1001A000086800F058B880F30988BFF36F8F4FF0EC
:1001B000000080F3118870470000000006480068C6
:1001C000006880F3088862B661B6BFF34F8FBFF353
:1001D0006F8F00DF00BF00BF08ED00E0DFF80C000C
:1001E000016841F470010160704700BF88ED00E0D4
:1001F000EFF30980BFF36F8F144B1A681EF0100FD6
:1002000008BF20ED108A20E9F04F106008B44FF0CD
:10021000500080F31188BFF34F8FBFF36F8F0FF043
:1002200081FA4FF0000080F3118808BC1968086853
:1002300000F016B81EF0100F08BF00F016B880F3DB
:100240000988BFF36F8F704700BF00BFC00900204F
:10025000EFF30580704730C8B0E8C04FFFF7A3BF89
:1002600030C8B0E8C04FFFF7E5BFB0EC088AB0EC8B
:1002700008CAFFF7E4BF0000064880470648004769
:10028000FEE7FEE7FEE7FEE7FEE7FEE7FEE7FEE746
:10029000FEE7FEE78D730008890100082DE9F05F95
:1002A0000546002092469B468846064681464024E5
:1002B0001BE0284641464746224600F0A0FA534636
:1002C0005A46C01A914110D311461846224600F0F2
:1002D00087FA2D1A67EB01084F46224601200021BC
:1002E00000F07EFA17EB00094E41201EA4F1010434
:1002F000DFDC484631462A46434600F000B830BCB1
:10030000BDE8C09F40EA01039B0703D009E008C98C
:10031000121F08C0042AFAD203E011F8013B00F8CA
:10032000013B521EF9D27047D2B201E000F8012B16
:10033000491EFBD270470022F6E710B513460A4665
:1003400004461946FFF7F0FF204610BD421C10F886
:10035000011B0029FBD1801A70472DE9FE4F804612
:1003600081EA0300C00F0C46009021F0004123F009
:100370000045B8EB0200A94105D24046214690460F
:100380001C460B46024623F00040104347D0270D81
:10039000C7F30A00C3F30A510290401A01904028A3
:1003A0006BDAC3F3130040F4801B0098924620B12F
:1003B0000023D2EB030A63EB0B0B01985946C0F103
:1003C0004002504600F00CFA06460D46504659468B
:1003D000019A00F024FA10EB08006141002487EA3A
:1003E000115284EAE7731A4340D0009A62B3019A2B
:1003F000012A4FEA075215DC001B61EB02014FF0A6
:10040000004202EA0752CDE90042001C41F580118A
:1004100032462B4600F024FA03B000F045B84046BF
:100420002146F9E7001B61EB0201001C41F5801336
:1004300000185B412018A2F5001747EB030140EAC2
:10044000D570B6196D4111E06D084FEA360645EAE0
:10045000C0754FEA0752001B61EB0201001C41F519
:10046000801149084FEA30000019514132462B46AD
:1004700003B000F01CB800F0E4B90098012240007D
:100480000023D0EB020263EBE073009821464FEAB1
:10049000E074B8EB000061EB0401E9E783F000438E
:1004A0005BE781F0004158E730BCBDE8C08F30BC4D
:1004B000BDE8C04FFFF7DFBF2DE9FE4F81EA03041F
:1004C00004F0004421F0004100944FF0000B23F0B1
:1004D000004350EA01045ED052EA03045BD0C3F348
:1004E0000A54C1F30A552C44A4F2F3340194A0FB3E
:1004F0000254C1F3130141F48011C3F3130343F415
:10050000801301FB024400FB034E840A970A44EA6D
:10051000815447EA8357A4FB076802958D0A05FBBF
:1005200007854FEA932C04FB0C542705029D4FEAE4
:10053000065847EA1637B5EB08056EEB070C870E31
:10054000920E47EA811742EA8312A7FB0201B6EB3B
:100550000B0164EB00042B0D43EA0C335E1844EBF3
:100560001C50DA465146E7FB0201C5F313044FEA7B
:100570000B3343EA14534FEA0432019C43EA060367
:10058000A4F10C040294009CCDE900B400F068F9D9
:1005900003B000F003B800200146F9E730BCBDE825
:1005A000C08F2DE9F04D81EA030404F0004B21F0E7
:1005B000004514464FF0000A23F0004150EA0502BE
:1005C00020D054EA01021DD0C5F30A570246C5F3F4
:1005D0001303C1F31300C1F30A5640F4801543F42A
:1005E0008013A7EB0608101BD64608F2FD3873EB04
:1005F000050002D308F1010801E092185B41B8F14F
:10060000000F03DA00200146BDE8F08D00204FF412
:100610008011064684460EE0171B73EB050705D3D1
:10062000121B63EB050306434CEA010C49084FEA31
:10063000300092185B4150EA0107EDD152EA030005
:1006400012D082EA040083EA0501084305D0101B9A
:10065000AB4106D20122002306E000224FF0004306
:1006600002E06FF0010253101AEB06004CEB085148
:1006700010EB0A0041EB0B01BDE8F04D00F0E1B8D2
:100680000EB5C10F80EAE0700844CA07002140F2AD
:1006900033438DE80E000A460B4600F0E1F803B044
:1006A00000BD0EB540F2334102910021CDE90011A9
:1006B0000A460B4600F0D4F803B000BD70B5C1F394
:1006C0000A5201F000450024C1F3130140F2FF3348
:1006D00041F480119A4201DA002070BD40F23343A8
:1006E0009A42A2F2334203DC524200F088F800E062
:1006F00090402C43F1D0404270BDC1F30A5210B576
:10070000C1F3130140F2FF3341F480119A4201DA40
:10071000002010BD40F233439A42A2F2334203DC80
:10072000524200F06CF810BD904010BD00F0004245
:1007300030F000400AD0C10D01F56071C0F3160021
:1007400042EA0151C20840071143704700200146A8
:100750007047000030B5041E71F1000404DB4FF057
:100760000044404264EB0101141E73F1000405DBF8
:100770001C464FF00043524263EB04038B4208BF18
:10078000824230BD30B5041E71F1000404DB4FF02D
:100790000044404264EB0101141E73F1000405DBC8
:1007A0001C464FF00043524263EB0403994208BFDA
:1007B000904230BD30B50B46014600202022012476
:1007C00009E021FA02F59D4205D303FA02F5491B1F
:1007D00004FA02F52844151EA2F10102F1DC30BD35
:1007E000202A04DB203A00FA02F1002070479140F1
:1007F000C2F1200320FA03F3194390407047202AE6
:1008000004DB203A21FA02F00021704721FA02F3BA
:10081000D040C2F120029140084319467047202A77
:1008200006DBCB17203A41FA02F043EAE07306E018
:1008300041FA02F3D040C2F1200291400843194628
:10084000704710B5141E73F1000408DA401C41F122
:10085000000192185B411A4301D120F0010010BD44
:100860002DE9F04D92469B4611B1B1FA81F202E0BA
:10087000B0FA80F220329046FFF7B2FF04460F46EE
:1008800040EA0A0041EA0B0153465A46084313D096
:10089000114653EA010019D0C8F140025046FFF753
:1008A000AEFF05460E46504659464246FFF798FFB2
:1008B000084305D0012004E020463946BDE8F08D0C
:1008C0000020054346EAE0762C4337430A98630547
:1008D000E40AA0EB08000022FD0A44EA47540A306B
:1008E00002D500200146E9E7010510196941DDE95B
:1008F000084500196941BDE8F04DA2E72DE9F04D2A
:1009000000231A461B1A8A4103DB00200146BDE87A
:10091000F08DC1F30A52C1F3130141F480154FF079
:10092000000BD10702D100186D41521E002704466A
:1009300040F2FF11384601EB620A3E46804602460D
:1009400000204FF48011FFF75AFFC2197141BB1804
:1009500046EB0100B4EB030C75EB000C04D3E41A76
:1009600065EB000517460E46241908F101006D419C
:1009700080463428E3DDF91946EB0600091BA8413F
:1009800003D24FF0FF32134601E0002213461BEB67
:10099000070046EB0A51BDE8F04DFFF752BFC1F327
:1009A0000A52C1F3130140F2FF3341F480119A421D
:1009B00002DA00200146704740F233439A42A2F225
:1009C000334202DC5242FFF71ABFFFF709BF0000B3
:1009D000064C074D06E0E06840F0010394E807008C
:1009E00098471034AC42F6D3FFF7D2FBC00B010896
:1009F000E00B010870B58C1810F8015B15F00703C7
:100A000001D110F8013B2A1106D110F8012B03E0A7
:100A100010F8016B01F8016B5B1EF9D12B0705D4AF
:100A20000023521E0DD401F8013BFAE710F8013BF8
:100A3000CB1A921C03E013F8015B01F8015B521E14
:100A4000F9D5A142D8D3002070BD70B50546AC6A77
:100A5000A06D00F05000A8BBA06D40F40070A06530
:100A60002068006800F00800082816D12068C068D7
:100A700000F4406010BB2068C06800F40050E8B982
:100A8000A06D20F48070A065A06D00F48050A8B91E
:100A9000A06D40F00100A06510E02068C06800F083
:100AA000020058B9A06D20F48070A065A06D00F41C
:100AB000805018B9A06D40F00100A065204601F0FB
:100AC00077FA08E0FFE7A06D00F01000102802D1CF
:100AD000204601F06FFA70BD70B50546AC6AA06D96
:100AE00040F04000A065E06D40F00400E065204665
:100AF00001F060FA70BD70B50446A56A284601F0A1
:100B000058FA70BD70B5044600252068806800F072
:100B10000300012806D12068006800F0010008B138
:100B2000012000E0002088BB206880681C49084044
:100B300008B9012000E0002048B9A06D40F0100085
:100B4000A065E06D40F00100E065012070BD206807
:100B5000806840F001002168886002F0E1FB0546F2
:100B600015E02068806840F001002168886002F08C
:100B7000D7FB401B02280AD9A06D40F01000A065E9
:100B8000E06D40F00100E0650120DFE705E020684E
:100B9000006800F001000028E3D00020D6E7000044
:100BA0003F00008002A007F059F905F005FB0000A6
:100BB0000A203D3D3D3D4275734661756C745F484A
:100BC000616E646C65723D3D3D0A000010B500F039
:100BD0001BFA3A2000F045FA10BD10B500F014FAE7
:100BE0003B2000F03EFA10BD10B53B2000F093F81A
:100BF00000F07F0010BD000008B500F04DF90020A6
:100C0000009011E01D4A9DF8003002EB430251783C
:100C10001A4A9DF8003012F8130000F044FA9DF8CB
:100C20000000401CC0B200909DF800002F28E9DBB6
:100C300003211348007800F0CBF91248008800F037
:100C4000E8F97221132000F02EFA08220E493E2006
:100C500000F011FA302000F05EF800909DF80010CE
:100C60000AA007F0FBF8312000F055F800909DF83D
:100C700000100AA007F0F2F808BD0000880801087B
:100C800029090020260900202B0900205041525438
:100C90004E554D3D5B2558485D202000564552532A
:100CA000494F4E3D5B2558485D20200A000000005A
:100CB0002DE9F04105460E46174600F00DFA45F0C5
:100CC000C00005F0AFFD00240FE04FF0000803E086
:100CD00008F1010000F0FF08B8F1140FF8DBFF2065
:100CE00005F0A0FD3055601CC4B2BC42EDDB00F045
:100CF000E9F9BDE8F08170B5044600F0EDF944F083
:100D0000800005F08FFDFF2005F08CFD054600F00A
:100D1000D9F9284670BD70B5044600F0DDF944F0FD
:100D2000C00005F07FFDFF2005F07CFD054600F0CA
:100D3000C9F9284670BD000070B506460024FFF7CB
:100D400053FF002859D03F20FFF7D5FF04460CB1D0
:100D50003C2C05DD21462BA007F080F8002070BD5B
:100D6000224631463F20FFF7A3FF02222F493F20B2
:100D7000FFF79EFFFFF72AFF2C48407800F0800025
:100D8000D8B1002529480578802D07DBA5F58070AE
:100D900000EBD0714910A1F14B0505E0284605EBA9
:100DA000D0714910A1F14B0515F1320F03DA294634
:100DB0001FA007F053F82046D1E700251B4805780F
:100DC000802D07DBA5F5807000EBD0714910A1F1F3
:100DD0004B0505E0284605EBD0714910A1F14B0504
:100DE00018A007F03BF811484278234629461AA07C
:100DF00007F034F800240020B1E720A007F02EF817
:100E00000020ACE743433131303120676574206CFA
:100E1000656E677468205B25645D20646174612180
:100E200021206572726F720D0A0000003B090020DC
:100E30002A2A2A20525353493D5B25645D202A2AE1
:100E40002A0A0000434331313031204352432065A8
:100E500072726F720D0A0000525353493D5B256454
:100E60005D2D2D4352433D5B2558485D2D6C656ECD
:100E70006774683D5B25645D0D0A000043433131B2
:100E800030312067657420636E7420302064617493
:100E90006121210D0A00000010B500F013F9322085
:100EA00001F094FE00F018F9322001F08FFE00F0FE
:100EB00009F9002401E0601CC4B2642CFBDB302083
:100EC00000F0CFF810BD00002DE9F04106460D46B8
:100ED000174698460024172002F0D6FA072002F0A1
:100EE000D3FA00BF07E0642001F070FE641C642C9C
:100EF00001D3BDE8F0810BF0CDFA0128F3D00FB992
:100F00004FF00008FFF769FE0720FFF7F4FE20F01E
:100F1000030048B1681CC1B23F2000F0C4F841464C
:100F20003F2000F0C0F803E029463F2000F0BBF866
:100F30002A4631463F2000F09EF8002000F07CF861
:100F4000002404E0641C1E48844200D305E04021D4
:100F50001C4802F0D7F90128F4D100BF002404E0B6
:100F6000641C1748844200D305E04021154802F074
:100F7000C9F90128F4D000BFFFF72FFE002404E0D8
:100F8000641CB4F5802F00D304E03520FFF7C3FEC6
:100F90000128F5D100BF012000F04EF840200A4999
:100FA0000860172002F07EFA0720074908600860F1
:100FB00002F078FA01200549087000BF99E70000A7
:100FC000FFFF030000080048140401403A0000201D
:100FD00070B506460C460720FFF78DFE20F003058E
:100FE0003146092000F05FF86CB1012C02D145F0C8
:100FF000010508E0022C02D145F0020503E0032CB4
:1010000001D145F0030570BD10B5362000F029F878
:1010100010BD10B50446C4F30721042000F043F8C6
:10102000E1B2052000F03FF810BD10B5FFF7ECFF6E
:10103000392000F016F810BD10B504463CB9062161
:10104000022000F030F8352000F00BF808E0012C09
:1010500006D10621022000F026F8342000F001F825
:1010600010BD10B5044600F037F8204605F0DAFB55
:1010700000F028F810BD2DE9F04105460E46174650
:1010800000F02AF845F0400005F0CCFB002404E015
:10109000305D05F0C7FB601CC4B2BC42F8DB00F059
:1010A00011F8BDE8F08170B505460C4600F014F863
:1010B000284605F0B7FB204605F0B4FB00F002F827
:1010C00070BD000010B501225102024802F022F961
:1010D00010BD00000008004810B500224FF4007158
:1010E000054802F017F900BF4FF40071024802F002
:1010F00009F90028F8D110BD0008004838B50546A8
:10110000A4480088401CA349088008460088A249DA
:10111000097890FBF1F201FB120018B19D4800889C
:10112000012820D19D480088E8B99D480078D0B9B1
:101130009C480078B8B99C480078A0B99A480078D3
:101140000090984803789648027894480188974818
:1011500006F084FE0CF016F90CF0F8FC8F480188BC
:1011600093A006F07BFE8B48008840F2B51190FBFF
:10117000F1F201FB120080B98648008868B1874807
:10118000008850B98648007838B98648007820B978
:101190008548007808B90CF035FD7E4800880D219F
:1011A00090FBF1F201FB120000287DD17948018803
:1011B00088A006F053FE00200AF0DCFB8C4890ED7E
:1011C0000C1BB0EE410AF0EE610A9FED8A1B53EC56
:1011D000112B51EC100BFFF7D5FA0CD800208749E2
:1011E00008706E48008890B98548008803280EDB97
:1011F000FFF71BFF0BE0012080490870674800885B
:1012000028B97F480088032801DBFFF70EFF6448F8
:101210000078012807D063480078012803D062488D
:101220000078012805D177480078401C754908707E
:1012300002E00020734908707248007803280CDB34
:10124000002057490870574908706E490870564980
:101250000870524908806C490870654890ED0C1B75
:10126000B0EE410AF0EE610A9FED681B53EC112BC2
:1012700051EC100BFFF786FA63480078012836D14D
:101280006148017863A006F0E9FD0020009001208C
:1012900045490870654800886549088063480088AA
:1012A00000B26449088000E021E06B4602226248F7
:1012B000016862480FF064FA04464CB1009838B1F6
:1012C0004FF080505E490860BFF34F8FBFF36F8FC0
:1012D00040F6B83001F07AFC00205A49088001211C
:1012E00059480CF037FC00204749087000BF5748A8
:1012F000007800EB4001C1EB801000F699602549B1
:10130000098891FBF0F200FB121098B95048007860
:1013100080B92048008868B14EA006F09FFD08F013
:1013200065FF012055490870494908700221464867
:101330000CF010FC17480088262190FBF1F201FB0D
:10134000120080B91548008868B941480078012822
:1013500009D11048008830B149A006F07FFD022174
:1013600039480CF0F7FB0B48008840F6596190FBB8
:10137000F1F201FB120060B94FF4005048490860D7
:101380004FF47A7001F022FC4FF4005044491031C0
:10139000086038BD14090020420000203C000020F5
:1013A0002500002024000020280000202C0B01082C
:1013B0002D2D2D2D616674657220444143204343D9
:1013C000313130315F535445503D5B25585D2D2DF3
:1013D0002D0A00000A3D3D3D796F6E6773616920FB
:1013E000636F6E74726F6C5B25645D3D3D3D0A00FA
:1013F000C0F6002000000000000010403200002075
:10140000400000201609002008000020CDCCCCCCE4
:10141000CCCC10403D3D737461727420696E697468
:10142000205B25645D3D3D0A0000000016000020A1
:10143000200000202A0000201C090020CDEF000819
:1014400004ED00E0340000200409002029090020F8
:10145000430000203D3D3D73656E642073696D75EA
:101460006C6174696F6E20616C61726D206461746F
:10147000612D2D312121210A0000000044000020AF
:101480003D3D6379632073656E6420616C61726DAC
:1014900020646174612121212D2D320A0000000099
:1014A0001804004810B5024801F046FA10BD0000CB
:1014B000080B002010B5024801F03EFA10BD0000F4
:1014C000500B002030B590F844500124AC40056C1E
:1014D0006C60046863608468102C04D10468A260A6
:1014E0000468E16003E00468A1600468E26030BD64
:1014F000704710B5012001F0F3FD10BD10B50220BA
:1015000001F0EEFD10BD10B5402001F0E9FD10BD69
:101510001B48007F012803D01948007F032811D100
:1015200000BF1848006840F400601649086008468B
:10153000006820F40060086000BF0846006840F4BE
:10154000007008600E48007F022803D00C48007F1E
:10155000032811D100BF0B48006840F480500949AE
:1015600008600846006820F48050086000BF084604
:10157000006840F4806008600020014908777047E7
:10158000180A00200020024000F0010129B10B4997
:10159000496941F00401094A516100F0020129B191
:1015A0000649496941F40041044A516103494969C6
:1015B00041F48031014A516170470000002002402F
:1015C00001F0010232B1134A526922F40062114B58
:1015D0005A6105E00F4A526942F400620D4B5A61AC
:1015E0000C4A526922F4FF624FF4FF6393FAA3F3AB
:1015F000B3FA83F300FA03F31A43064B5A611A460F
:10160000526942F002025A611A46526942F480322B
:101610005A6170470020024010B50449496941F001
:101620000101024C61610260436010BD0020024074
:1016300070B5402402460B46074D6D6945F4802580
:10164000054E756172B600BF20CB20C2651EEDB29B
:101650002C1EF9D162B670BD002002404A480069D4
:1016600000F00200022805D14848406840F001001F
:10167000464948604448006900F00800082805D140
:101680004248406840F00200404948603E480069D6
:1016900000F01000102805D13C48406840F00400DC
:1016A0003A4948603848006900F02000202805D1F8
:1016B0003648406840F008003449486032480069C4
:1016C00000F04000402805D13048406840F010004C
:1016D0002E4948602C48006900F08000802805D120
:1016E0002A48406840F020002849486026480069A0
:1016F00000F48070B0F5807F05D12448406840F048
:101700004000224948602048006900F40070B0F5AC
:10171000007F05D11D48406840F080001B494860AB
:101720001948006900F48040B0F5804F05D1174892
:10173000406840F48070154948601348006900F41F
:101740000040B0F5004F05D11048406840F40070EB
:101750000E4948600C48806900F00040B0F1004F2D
:1017600005D10A48406840F480600849486000BFDD
:101770000548806940F00040034988614CF2FA3026
:10178000086100BF7047000000200240180A0020D6
:1017900070B5044601F0C4FD051907E0601C28B1CE
:1017A00001F0BEFDA84201D3032070BD2E480069A0
:1017B00000F48030B0F5803FF0D02B48006900F095
:1017C0000200022840D02848006900F008000828DC
:1017D0003AD02548006900F01000102834D0224883
:1017E000006900F0200020282ED01F48006900F07A
:1017F0004000402828D01C48006900F08000802864
:1018000022D01948006900F48070B0F5807F1BD0A9
:101810001548006900F40070B0F5007F14D012483C
:10182000006900F48040B0F5804F0DD00E4800698B
:1018300000F40040B0F5004F06D00B48806900F07E
:101840000040B0F1004F03D1FFF708FF0120ACE7E3
:101850000548006900F0010020B100BF01200249E5
:10186000086100BF0020A0E70020024070B59AB0D8
:1018700002460B460024186800B100BF00BF92F872
:101880005400012802D102201AB070BD012082F854
:10189000540000BF484D1068A84202D1474800904C
:1018A00001E000200090009850B9906D40F02000B9
:1018B000906500BF002082F8540000BF0120E3E7DC
:1018C00010688068C0F38000002869D100988068A3
:1018D000C0F38000002863D139491868B8B358684C
:1018E0004FF4005696FAA6F6B6FA86F6556BB54052
:1018F00028438D6825F46045284388601068806817
:1019000000F00300012806D11068006800F0010013
:1019100008B1012000E00020002846D1009880682E
:1019200000F00300012806D10098006800F00100D3
:1019300008B1012000E0002088BB9D68186828439A
:101940008D6840F61F76B543284388602DE0FFE799
:10195000886820F4604088601068806800F00300A8
:10196000012806D11068006800F0010008B10120CC
:1019700000E0002098B90098806800F0030001287A
:1019800006D10098006800F0010008B1012000E0D5
:10199000002020B9886840F61F75A843886004E0DD
:1019A000906D40F020009065012400BF002082F877
:1019B000540000BF204667E70000045000010450B7
:1019C00000030450F8B50246002500200090C868C6
:1019D000B0F1804F00D000E000BF00BF92F854008B
:1019E000012801D10220F8BD012082F8540000BF77
:1019F00010688068C0F3800000287DD14868052801
:101A00001BD21068006B0E794FF4F86797FAA7F7AE
:101A1000B7FA87F77E431F27B740B8430F794FF4D3
:101A2000F86C9CFAACFCBCFA8CFC07FB0CF70E685B
:101A3000BE4030431668306363E048680A281ED20F
:101A40001068466B0879401F4FF4F86797FAA7F7BC
:101A5000B7FA87F778431F27874026EA07000E79F1
:101A6000761F4FF4F86C9CFAACFCBCFA8CFC06FBBD
:101A70000CF60F68B74038431668706341E0486859
:101A80000F281ED21068866B08790A384FF4F86761
:101A900097FAA7F7B7FA87F778431F27874026EA10
:101AA00007000E790A3E4FF4F86C9CFAACFCBCFAC5
:101AB0008CFC06FB0CF60F68B74038431668B06321
:101AC0001FE01068C66B08790F384FF4F86797FA73
:101AD000A7F7B7FA87F778431F27874026EA07005A
:101AE0000E790F3E4FF4F86C9CFAACFCBCFA8CFCFF
:101AF00006FB0CF60F6800E042E2B7403843166878
:101B0000F0631068806800F00C0008B1012000E06C
:101B10000020002872D108680A281DD31068866941
:101B200008780A38382797FAA7F7B7FA87F778437B
:101B30000727874026EA07000E780A3E4FF0380C48
:101B40009CFAACFCBCFA8CFC06FB0CF68F68B74028
:101B500038431668B06119E0106840690E7838277C
:101B600097FAA7F7B7FA87F77E430727B740B84336
:101B70000F784FF0380C9CFAACFCBCFA8CFC07FBDD
:101B80000CF78E68BE40304316687061486916686D
:101B9000F668C6F3C106760000FA06F40869012863
:101BA00006D0022817D0032829D004284DD139E0C7
:101BB0001068006EF84E30404FF0F84797FAA7F7DC
:101BC000B7FA87F70E68BE4046F00046264330431A
:101BD000166830668AE01068406EEF4E30404FF075
:101BE000F84797FAA7F7B7FA87F70E68BE4046F0AE
:101BF0000046264330431668706677E077E0106849
:101C0000806EE54E30404FF0F84797FAA7F7B7FAE5
:101C100087F70E68BE4046F00046264330431668FC
:101C2000B06663E01068C06EDB4E30404FF0F8479E
:101C300097FAA7F7B7FA87F70E68BE4046F0004656
:101C4000264330431668F06650E01068006E00F0DE
:101C5000F8464FF0F84797FAA7F7B7FA87F70868FA
:101C6000B840864205D11068006E20F0004016682A
:101C700030661068406E00F0F8464FF0F84797FA6B
:101C8000A7F7B7FA87F70868B840864205D1106809
:101C9000406E20F00040166870661068806E00F09C
:101CA000F8464FF0F84797FAA7F7B7FA87F70868AA
:101CB000B840864205D11068806E20F0004016685A
:101CC000B0661068C06E00F0F8464FF0F84797FA1B
:101CD000A7F7B7FA87F70868B840864205D11068B9
:101CE000C06E20F000401668F06600BF00BF1068AC
:101CF000806800F00300012806D11068006800F039
:101D0000010008B1012000E0002000287AD1C86855
:101D1000B0F1804F0AD01068D0F8B0000F780126DB
:101D2000BE40B0431668C6F8B00047E01068D0F86F
:101D3000B0000F780126BE4030431668C6F8B000E8
:101D4000086809281DD3106886690878093838277B
:101D500097FAA7F7B7FA87F778430727874026EA65
:101D600007000E78093E4FF0380C9CFAACFCBCFA28
:101D70008CFC06FB0CF68F68B74038431668B061E0
:101D80001CE0106846690878401C382797FAA7F7C6
:101D9000B7FA87F778430727874026EA07000E78C7
:101DA000761C4FF0380C9CFAACFCBCFA8CFC06FBA1
:101DB0000CF68F68B740384316687061774B086837
:101DC000112803D1986800F4000070B10868122847
:101DD00003D1986800F0807038B10868002895D168
:101DE000986800F48000002890D11068806800F0A6
:101DF0000300012807D11068006800F0010010B14D
:101E0000012001E098E0002000286ED1644E1068A7
:101E1000B04224D16348006800F00300012807D1D4
:101E200060480838006800F0010008B1012000E0B7
:101E3000002080B95948F838006800F003000128F4
:101E400007D15848F830006800F0010008B10120BF
:101E500000E0002008B101204DE000204BE0514E91
:101E6000083E1068B04223D14D48806800F003005E
:101E7000012806D14A48006800F0010008B101209D
:101E800000E0002080B94548F838006800F0030001
:101E9000012807D14348F830006800F0010008B17C
:101EA000012000E0002008B101200FE000200DE03B
:101EB0003B48806800F00300012806D138480068DC
:101EC00000F0010008B1012000E0002080B9354891
:101ED000006800F00300012808D132480838006883
:101EE00000F0010010B1012001E037E0002008B14E
:101EF000012000E0002088BB086811281DD1284E71
:101F00001068B04204D0274EF8361068B0423CD179
:101F1000986840F40000986023480068234EB0FBA6
:101F2000F6F0C0EB0010C000009002E00098401EE8
:101F3000009000980028F9D127E0086812280ED1F7
:101F4000174E1068B04204D0164EF8361068B042F2
:101F50001BD1986840F08070986016E00AE008682D
:101F600098B90F4E1068B0420FD1986840F48000C5
:101F700098600AE0906D40F020009065012504E033
:101F8000906D40F020009065012500BF002082F890
:101F9000540000BF284626E500F0FF03000304506C
:101FA00000000450080104500000002080841E003E
:101FB0007047704770470000F8B5044600270025B9
:101FC000002000900CB90120F8BD206918B1606AAA
:101FD000012800D100BFA06D30B9204600F07CF987
:101FE0000020E06584F854002068806800F000500C
:101FF000B0F1005F05D12068806820F000502168B2
:1020000088602068806800F08050A8B920688068E7
:1020100040F0805021688860A9480068A949B0FB59
:10202000F1F000EB80004000009002E00098401EBC
:10203000009000980028F9D12068806800F0805056
:1020400040B9A06D40F01000A065E06D40F00100C7
:10205000E0650127A06D00F01000002879D120680C
:102060008068C0F380000028F8D1A06D40F0020025
:10207000A065954E2068806800F00300012806D115
:102080002068006800F0010008B1012000E0002095
:1020900000287CD18D492068884224D18C48006872
:1020A00000F00300012807D189480838006800F0D3
:1020B000010008B1012000E0002080B98248F83812
:1020C000006800F00300012807D18148F83000685B
:1020D00000F0010008B1012000E0002008B101205B
:1020E0004EE000204CE07A4908392068884223D12C
:1020F0007648806800F00300012806D17348006824
:1021000000F0010008B1012000E0002080B96E4815
:10211000F838006800F00300012807D16C48F83057
:10212000006800F0010008B1012000E0002008B1C3
:10213000012010E000200EE06448806800F00300F9
:10214000012807D16148006800F0010010B10120AA
:1021500001E0AEE0002080B95D48006800F00300B7
:10216000012808D15A480838006800F0010010B171
:10217000012001E00BE0002008B1012000E0002078
:1021800028B9B06820F47C1061680843B0604FF44F
:10219000005191FAA1F1B1FA81F1E0698840A16B97
:1021A0000843E1680843A16808434FF4803292FA7B
:1021B000A2F2B2FA82F2616A914040EA0105606AD5
:1021C000012809D1A06A401E4FF4602191FAA1F1C3
:1021D000B1FA81F188400543E06A012805D0206BFF
:1021E00018B1D4E90B01084305432068C068394998
:1021F000084028432168C8602068806800F00C000F
:1022000008B1012000E0002090BB4FF4804191FA1A
:10221000A1F1B1FA81F1A0698840022292FAA2F2FA
:10222000B2FA82F2616B914040EA01052068C06811
:1022300044F20201884328432168C860E06B01280A
:1022400017D1E06A012801D0206B00B900BF206CD3
:1022500040F00101606C0843A16C0843E16C084345
:102260002168096940F2FD729143084321680861C1
:1022700005E02068006920F00100216808612069FC
:10228000012809D12068006B20F00F00216A491E47
:1022900008432168086305E02068006B20F00F0008
:1022A00021680863A06D20F0020040F00100A065E5
:1022B00004E0A06D40F01000A0650127384683E6D9
:1022C0000000002080841E00000304500000045021
:1022D0000801045007C0F0FF10B586B0044651490C
:1022E0002068884255D150480068401C4E4908601B
:1022F0000846006801280DD100BF4C48C06C40F46E
:1023000000504A49C8640846C06C00F40050009070
:1023100000BF00BFC02001900B200290002003905E
:1023200001A94FF0904000F0E9FE302001900B2011
:1023300002900020039001A93D4800F0DFFE01203B
:1023400001900B2002900020039001A9394800F071
:10235000D5FE3948394908600020486000213748D7
:102360008160C16080210161490041618900816112
:102370002021C1610021016200F052FB20B140F236
:1023800025112FA005F068FD00BF2C482065846250
:1023900045E02F492068884241D123480068401C0D
:1023A000214908600846006801280DD100BF1F4878
:1023B000C06C40F400501D49C8640846C06C00F46D
:1023C0000050009000BF00BF0F2001900B20029032
:1023D0000020039001A9164800F090FE1D481E49F8
:1023E00008600020486000211B488160C160802196
:1023F000016149004161890081612021C1614FF47F
:102400004051016200F00CFB20B140F251110CA0D0
:1024100005F022FD00BF10482065846200BF06B0B1
:1024200010BD0000000004500C000020001002400D
:10243000000800480004004808000240080B002083
:102440002E2E2F5372632F6164632E6300000000F1
:102450000001045044040240500B00202DE9F041DB
:1024600004460D461646002720688068C0F38000A9
:1024700000287DD100BF94F85400012802D1022029
:10248000BDE8F081012084F8540000BF464920686F
:10249000884203D045492068884214D144480068E6
:1024A00000F01F0068B14248006800F01F000528D6
:1024B00007D03F48006800F01F00092801D0012024
:1024C00002E0002000E00020002863D12046FEF753
:1024D00019FB0746002F58D1A06D00F48050B0F5CD
:1024E000805F04D1E06D20F00600E06501E000208F
:1024F000E065A06D40F60161884340F48070A065FE
:1025000029492068884203D02A492068884201D19D
:10251000012007E02648006800F01F0008B90120EC
:1025200000E0002018B1A06D20F48010A0652248C2
:10253000216DC8622148216D08632148216D4863DF
:102540001C20216808602068406840F01000216865
:1025500048602068C06840F001002168C8602268B7
:1025600002F1400133462A46206D00F0E1FA00E016
:1025700016E000BF002084F8540000BF2068806887
:1025800040F00400216888600BE000BF002084F860
:10259000540006E0012700BF002084F8540000E04A
:1025A000022738466CE70000000004500001045088
:1025B00008030450000204504B0A0008F70A000800
:1025C000D90A000870472DE9F04704460D46164623
:1025D0000027B846B9462869012800D100BF2868FD
:1025E000042800D100BF00BF6079012802D1022079
:1025F000BDE8F0870120607100BF022020712868CB
:1026000004284DD1EEB900F08BFE81460CE000F0BD
:1026100087FEA0EB0900012806D9206940F00800D8
:10262000206103202071E3E72068406B00F4004044
:102630000028ECD1012000F0C9FAA86921680864DB
:1026400019E00CE000F06CFEA0EB0900012806D9AF
:10265000206940F00800206103202071C8E720684D
:10266000406B00F000400028ECD1012000F0AEFAF1
:10267000A869216848642068806C40F2FF31B1404D
:102680008843E969B1400843216888642068C06CC8
:10269000FF21B1408843296AB14008432168C864DA
:1026A000286901280BD12068876B1F20B040874321
:1026B000D5F8148008FA06F007432068876320687D
:1026C000C76B0720B0408743A96828680843E968BA
:1026D00040EA010808FA06F007432068C76320684B
:1026E00001684FF48040B040814320680160206859
:1026F000076840F6FC70B0408743D5F8048008FABC
:1027000006F007432068076020680168C020B040D9
:102710008143206801600120207100BF00206071AA
:1027200000BF00BF64E77047024611B91068C06A75
:1027300070471068006BFBE710B50446206800681E
:1027400000F40050B0F5005F19D12068406B00F430
:102750000050B0F5005F12D104202071206940F0D4
:10276000010020614FF40050216848632068006830
:1027700020F48050216808602046FFF7D4FF2068CD
:10278000006800F00050B0F1005F19D12068406B84
:1027900000F00050B0F1005F12D1042020712069D8
:1027A00040F0020020614FF000502168486320682B
:1027B000006820F08050216808602046FFF702FF83
:1027C00010BD10B504460CB9012010BD207920B908
:1027D00000206071204600F009F8022020710020DE
:1027E0002061012020710020EFE7000010B586B0C5
:1027F000044613492068884220D100BF1148806DEB
:1028000040F000500F4988650846806D00F0005088
:10281000009000BF00BF30200190032002900020F4
:10282000039001A94FF0904000F068FC00220521C0
:10283000362000F044FE362000F034FE06B010BD15
:10284000007400400010024038B50446002000909B
:102850002068009029B902F10800009D28440090EA
:1028600004E002F11400009D2844009000980360E9
:10287000002038BD024600BF5079012801D1022056
:1028800070470120507100BF02201071106800686D
:1028900001238B4018431368186061B91068006801
:1028A00000F03C003C2813D11068406840F0010063
:1028B000136858600CE01068006800F47010B0F500
:1028C000701F05D11068406840F00200136858601E
:1028D0000120107100BF0020507100BF00BFCFE782
:1028E00070B50446002594F82500022803D0042082
:1028F000E06301251EE02068006820F00E002168DA
:1029000008602068006820F001002168086094F8E1
:10291000441001208840216C4860012084F8250083
:1029200000BF002084F8240000BFA06B10B1204637
:10293000A16B8847284670BD70B50446206C0568B9
:102940002068066894F84410042088402840D0B1DC
:1029500006F00400B8B12068006800F0200028B933
:102960002068006820F004002168086094F8441092
:1029700004208840216C4860206B00284ED02046FF
:10298000216B88474AE094F8441002208840284090
:1029900008B306F00200F0B12068006800F02000E3
:1029A00040B92068006820F00A0021680860012012
:1029B00084F8250094F8441002208840216C486077
:1029C00000BF002084F8240000BFE06A30B3204636
:1029D000E16A884722E094F84410082088402840A3
:1029E000E0B106F00800C8B12068006820F00E00D1
:1029F0002168086094F8441001208840216C4860E8
:102A00000120E06384F8250000BF002084F8240042
:102A100000BF606B10B12046616B884770BD00003D
:102A200010B50146002209B9012010BD8868B0F533
:102A3000804F00D000BF3C4B086898420BD23B4B04
:102A40000868C01A1423B0FBF3F0800048643748CC
:102A5000083808640AE0344B0868C01A1423B0FB35
:102A6000F3F080004864304808380864022081F898
:102A700025000868026843F6F0708243D1E902033A
:102A800018430B6918434B6918438B691843CB698A
:102A900018430B6A18430243086802608868B0F55F
:102AA000804F32D0214B083B086C984217D1D0F8A8
:102AB000A80091F844400F23A34098431B4BA03338
:102AC000186091F8443048689840184B083BD3F898
:102AD000A8301843154B083BC3F8A80015E012486E
:102AE000A030006891F844400F23A34098430E4B58
:102AF000A033186091F84430486898400A4BA033DE
:102B00001B681843084BA03318600020C862086394
:102B100048638863C863012081F82500002081F89C
:102B2000240000BF81E700000804024008000240C2
:102B30002DE9F04104460D4616461F464FF00008A9
:102B400000BF94F82400012802D10220BDE8F081E2
:102B5000012084F8240000BF94F8250001282CD11E
:102B6000022084F825000020E0632068006820F03F
:102B70000100216808603B46324629462046FEF7A0
:102B8000A1FC206B30B12068006840F00E00216885
:102B900008600BE02068006820F0040021680860ED
:102BA0002068006840F00A0021680860206800681A
:102BB00040F001002168086006E000BF002084F8B2
:102BC000240000BF4FF002084046BFE770B504463E
:102BD00000F0A6FB06462546681C00B16D1C00BF30
:102BE00000F09EFB801BA842FAD370BD2DE9F04196
:102BF00004460E460127002500BF3F480078012803
:102C000002D10220BDE8F08101203B49087000BFDD
:102C10004CF25030FEF7BCFD0746002F64D1364918
:102C200048603648006800F40070B8B13348006866
:102C300020F40070314908600846006800F48060A4
:102C400040B10846006820F48060086003202A49EB
:102C5000087715E001202849087711E02748006827
:102C600000F4806048B12548006820F48060234962
:102C7000086002202049087702E000201E490877FA
:102C8000206801280FD16068FEF77EFC4CF25030BE
:102C9000FEF77EFD07461948406948F20401884363
:102CA000164948611EE04FF0FF303060A56813E020
:102CB00028466168FEF784FC4CF25030FEF768FD50
:102CC00007460E48406940F2FA7188430B49486153
:102CD0000FB1356005E06D1CD4E902010844A8423B
:102CE000E6D800BFFEF714FC00BF002002490870C0
:102CF00000BF384686E70000180A00200020024086
:102D00000348406940F00040014948610020704795
:102D1000002002402DE9F04704460F4615461E46A6
:102D20004FF001084FF0000900BF2A480078012841
:102D300002D10220BDE8F08701202649087000BFBB
:102D40004CF25030FEF724FD8046B8F1000F39D127
:102D50000020204948602048006800F4806048B1A5
:102D60001D48006820F480601B4908600220194952
:102D7000087702E00020174908773CB92A46334615
:102D80003846FEF749FC4FF001090BE0012C01D059
:102D9000022C07D129463846FEF74AFC022C01D105
:102DA0004FF480294CF25030FEF7F2FC8046B9F126
:102DB000000F05D00848406920EA0900064948612B
:102DC000FEF7A6FB00BF00200249087000BF404686
:102DD000B0E70000180A00200020024007484069C0
:102DE00000F0004028B10648044988600548886022
:102DF00001E0012070470020FCE7000000200240B5
:102E000023016745AB89EFCD2DE9FC41064600273C
:102E1000002001900025012E49D170480088401CF7
:102E20006E4908806E480078012801D1BDE8FC8118
:102E30006C480078002839D101206A4908706A4836
:102E400000886A490880684800886949088067489E
:102E50000088A0F12805002D01DA05F5FA5563492F
:102E60000D800D805D48018862A004F0F7FF604886
:102E700002885E4801886AA004F0F0FF072000F095
:102E800003FB01AB01226E4801686E480DF078FC2F
:102E90000446002C0AD001980028FBD04FF0805047
:102EA00069490860BFF34F8FBFF36F8F94E0022E24
:102EB00059D166480088401C644908804848007819
:102EC000012800D1B2E76148018861A004F0C6FF83
:102ED0006648007800904348037865480278654862
:102EE0000188654804F0BAFF61480078002873D172
:102EF00001205F4908703C4800883D4908803A48F5
:102F000000883A49088008460088A0F5B475002D6D
:102F100001DA05F5FA5535490D800846008834492F
:102F200008804A48018855A004F098FF304802887C
:102F30002E4801883AA004F091FF01AB01224048DD
:102F4000016840480DF01CFC0446002C44D0019858
:102F5000002841D04FF080503B490860BFF34F8FAD
:102F6000BFF36F8F38E0402E36D14FF000080BE0F2
:102F700008F101086FF07C40804505D34AA004F0B9
:102F80006DFFFDF723FE51E74021514800F0BAF9EB
:102F90000128EDD0FDF728FE07464E480770002FA8
:102FA00019DD402F17DA01AB08224B48016825488C
:102FB0000DF0E6FB04464CB1019838B14FF080505B
:102FC00021490860BFF34F8FBFF36F8F43480088DC
:102FD000401C4249088000BF00BF27E71C000020BA
:102FE00008000020240000201600002020000020FF
:102FF000260000200A203D3DB5E7C1F7D6D0B6CF68
:103000003D3D65786974205041302C495F696E748C
:1030100065727275703D25643D3D3D3D0A000000BE
:103020006469616E6C69755F6164643D25642C45FB
:103030005F66696C645F6164643D25640000000044
:103040001C090020CDEF000804ED00E01A0000206C
:103050003D3D656E74657220455F496E74657272A0
:103060007570743D3D25640A0000000028000020B2
:10307000250000203C0000201C0A01080A203D3DDC
:10308000B5E7B3A1D6D0B6CF3D3D65786974205081
:1030900041312C455F696E7465727275703D2564AF
:1030A0003D3D3D3D0A0000000A2A2A2A2A2A4558A9
:1030B00049542043435F4952515F524541442829B6
:1030C000203D3D2031202A2A2A2A2A2A0A000000EF
:1030D0000008004890000020180900201E00002071
:1030E00010B5044604480068204020B1024804603E
:1030F0002046FFF789FE10BD1404014078B5034651
:10310000002200240020E5E0012696400D6805EA33
:103110000604002C7DD04D68022D02D04D68122D82
:1031200013D1D60803F1200555F826005507EE0EF9
:103130000F25B540A8435607F60E0D69B540284344
:10314000D60803F1200545F8260018685600032527
:10315000B540A8430D7905F003055600B540284356
:1031600018604D68012D08D04D68022D05D04D68BE
:10317000112D02D04D68122D13D1986856000325E9
:10318000B540A8435600CD68B540284398605868BC
:1031900001259540A8430D79C5F3001595402843B6
:1031A00058600D7905F00305032D09D1D86A012572
:1031B0009540A8430D79C5F3C00595402843D862D2
:1031C000D86856000325B540A84356008D68B54021
:1031D0002843D8604D6805F08055B5F1805F78D1FF
:1031E00000BF3F4D2D6E45F001053D4E356635461D
:1031F0002D6E05F00105009500BF00BF4FEAB63502
:10320000960855F8260095072E0F0F25B540A843C0
:1032100000E05EE0B3F1904F01D100251EE0314D9A
:10322000AB4201D1012519E02F4DAB4201D102255E
:1032300014E02E4DAB4201D103250FE02C4DAB42E3
:1032400001D104250AE02B4DAB4201D1052505E053
:10325000294DAB4201D1062500E007259607360F20
:10326000B5402843254D960845F82600244D28688A
:10327000A0434D6805F48035B5F5803F00D120436B
:103280001F4D28602D1D2868A0434D6805F40035AA
:10329000B5F5003F00D12043194D2D1D28602D1D8F
:1032A0002868A0434D6805F48015B5F5801F00D14E
:1032B0002043134D083528602D1D2868A0434D6814
:1032C00005F40015B5F5001F00D120430C4D0C3559
:1032D0002860521C0D68D540002D7FF415AF78BDD5
:1032E000001002400004004800080048000C00489C
:1032F0000010004800140048001800480800014071
:1033000000040140024613690B400BB1012000E0AC
:10331000002070470AB1816100E0816270470000BF
:10332000014800687047000004000020024800685F
:10333000401C0149086070470400002010B50320BC
:1033400000F0FEF8002000F005F800F047F800203B
:1033500010BD000070B588B004460025002600228C
:1033600021461A2000F0ABF81A2000F09BF800BFAD
:103370001648006E40F48020144908660846006E26
:1033800000F48020019000BF00BF02A903A800F054
:1033900095FC00F0D1FC05460D48B5FBF0F0461E4B
:1033A0000C480D49086040F2E7310B48C1604660A7
:1033B00000210161816001F023FD20B9064801F080
:1033C00077FD08B070BD0120FBE70000001002404F
:1033D00040420F00004801401807012008B500BF17
:1033E0002148006E40F001001F4908660846006E43
:1033F00000F00100009000BF00BF00BF0846806DD4
:1034000040F0805088650846806D00F08050009044
:1034100000BF00BF032000F093F8002211466FF0B8
:103420000B0000F04CF8002211466FF00A0000F08B
:1034300046F8002211466FF0090000F040F8002223
:103440001146501F00F03BF800221146101F00F0FB
:1034500036F800220F21901E00F031F800220F21D3
:10346000501E00F02CF808BD0010024000BF00F014
:103470001F0201219140034A430942F8231000BF73
:103480007047000080E200E000BF00F01F02012151
:103490009140034A430942F8231000BF70470000DF
:1034A00080E100E000BF00F01F02012191404209CD
:1034B000920002F1E022C2F8001100BF70472DE92E
:1034C000F05F80460D461646002702F059FE07467B
:1034D00039462A46334601F00700C0F1070ABAF11F
:1034E000040F02D94FF0040A01E0C0F1070AD146E7
:1034F00000F1040ABAF1070F02D24FF0000A01E00E
:10350000A0F1030AD4464FF0010A0AFA09FAAAF117
:10351000010A0AEA020A0AFA0CFA4FF0010B0BFA46
:103520000CFBABF1010B0BEA030B4AEA0B0421463F
:10353000404602F02DFE00F000B830BCBDE8C09F50
:1035400000BF00F00702064B19684FF6FF03194051
:10355000044B0B4343EA0221014B196000BF704743
:103560000CED00E00000FA0500BF00BF00BF00BF87
:1035700000BFBFF34F8F00BF00BF00BF0948006806
:1035800000F4E06008490843001D0649086000BFD8
:1035900000BF00BFBFF34F8F00BF00BF00BF00BF21
:1035A00000BFFDE70CED00E00000FA050246002137
:1035B000B2F5007F29D11D48006800F4C060B0F565
:1035C000007F31D01948006820F4C06040F40070DA
:1035D000164B186016480068164BB0FBF3F0322308
:1035E00000FB03F100E0491E31B11048406900F4CE
:1035F0008060B0F5806FF6D00C48406900F48060C0
:10360000B0F5806F10D1032070470848006800F4BF
:10361000C060B0F5806F07D00448006820F4C06037
:1036200040F48060014B18600020EDE7007000401E
:103630000000002040420F000248006800F4C06013
:1036400070470000007000402DE9F8430446002652
:1036500000270025A846208800F40060B0F5006F20
:1036600030D1606E80B1B0F5800F13D0B0F5000F8F
:1036700003D0B0F5400F15D113E0FB48C06840F40B
:103680008030F949C8600FE00021201D02F0B6FD2E
:10369000054609E0002104F1200002F0A5FE0546E0
:1036A00002E001E0012500BF00BF55B9EE488830B7
:1036B000006820F44000616E0843EB49C1F88800BF
:1036C00000E0A846208800F48050B0F5805F30D13B
:1036D000A06E80B1B0F1807F13D0B0F1007F03D035
:1036E000B0F1407F15D113E0DF48C06840F480306E
:1036F000DD49C8600FE00021201D02F07FFD054676
:1037000009E0002104F1200002F06EFE054602E00F
:1037100001E0012500BF00BF55B9D34888300068DB
:1037200020F04070A16E0843CF49C1F8880000E046
:10373000A846206800F40030B0F5003F76D14FF085
:103740000009C948806D00F0805078B900BFC648B4
:10375000806D40F08050C44988650846806D00F057
:103760008050009000BF00BF4FF00109BF480068C3
:1037700040F48070BD490860FFF7D2FD074606E0BF
:10378000FFF7CEFDC01B022801D9032505E0B7488D
:10379000006800F480700028F2D000BF85BBB248FA
:1037A0009030006800F44076D6B1D4F88000B04282
:1037B00016D0AD489030006820F44076AA48D0F882
:1037C000900040F48030A849C1F890000846D0F835
:1037D000900020F48030C1F890000846C0F8906056
:1037E00006F00100A8B1FFF79BFD074609E0FFF7CF
:1037F00097FDC01B41F28831884202D9032507E0BA
:1038000017E099489030006800F002000028EED0E0
:1038100000BF65B994489030006820F44070D4F837
:10382000801008439049C1F8900003E00CE0A846DE
:1038300000E0A846B9F1010F05D18B48806D20F05A
:1038400080508949886500BF207800F0010048B1A8
:1038500085488830006820F00300A16B0843824946
:10386000C1F88800207800F00200022809D17E48C3
:103870008830006820F00C00E16B08437A49C1F8F9
:103880008800207800F00400042809D176488830A8
:10389000006820F03000216C08437349C1F88800AB
:1038A000207800F00800082809D16F4888300068A7
:1038B00020F0C000616C08436B49C1F88800207893
:1038C00000F01000102809D167488830006820F403
:1038D0004070A16C08436449C1F88800207800F06A
:1038E0002000202809D160488830006820F440601A
:1038F000E16C08435C49C1F88800208800F400703E
:10390000B0F5007F09D158488830006820F4402085
:10391000E16D08435449C1F88800208800F48060B4
:10392000B0F5806F09D150488830006820F440100D
:10393000216E08434C49C1F88800207800F040000F
:10394000402809D148488830006820F44050216D53
:1039500008434549C1F88800207800F0800080289D
:1039600009D141488830006820F44040616D084327
:103970003D49C1F88800208800F48070B0F5807F50
:1039800009D139488830006820F44030A16D0843DF
:103990003549C1F88800206800F40020B0F5002FF8
:1039A0001FD131488830006820F04060E16E084344
:1039B0002D4988310860E06EB0F1006F06D12A48C9
:1039C000C06840F480102849C8600AE0E06EB0F199
:1039D000806F06D10121201D02F010FC054605B1C3
:1039E000A846206800F48020B0F5802F1FD11E4823
:1039F0008830006820F04060216F08431A49883100
:103A00000860206FB0F1006F06D11748C06840F41D
:103A100080101549C8600AE0206FB0F1806F06D1B0
:103A20000121201D02F0EAFB054605B1A8462088C9
:103A300000F48040B0F5804F26D10B4888300068F4
:103A400020F04050616F0843074988310860606F7B
:103A5000B0F1805F0CD10221201D02F0CFFB0546A2
:103A600095B1A84610E00000001002400070004030
:103A7000606FB0F1005F07D1022104F1200002F075
:103A8000B3FC054605B1A846208800F40040B0F517
:103A9000004F09D10E48006820F08040A16F084314
:103AA0000B498839C1F88800206800F48030B0F5EF
:103AB000803F09D10648006820F00040E16F0843CC
:103AC00003498839C1F888004046BDE8F883000002
:103AD0008810024070B504460D4600267348006801
:103AE00000F00700A8420ED27048006820F00700DE
:103AF00028436E4908600846006800F00700A842A5
:103B000001D0012070BD207800F00200022807D10A
:103B10006748806820F0F000A16808436449886025
:103B2000207800F00100002879D06068022806D1D2
:103B30005F48006800F40030D8B90120E2E760680F
:103B4000032806D15A48006800F0007088B90120A7
:103B5000D8E7606830B95648006800F0020040B904
:103B60000120CFE75248006800F4806008B90120C6
:103B7000C8E74F48806820F00300616808434C495B
:103B80008860FFF7CDFB06466068022810D108E088
:103B9000FFF7C6FB801B41F28831884201D9032020
:103BA000B0E74348806800F00C000828F0D136E008
:103BB0006068032810D108E0FFF7B2FB801B41F2D8
:103BC0008831884201D903209CE73948806800F099
:103BD0000C000C28F0D122E0606880B908E0FFF703
:103BE0009FFB801B41F28831884201D9032089E77D
:103BF0002F48806800F00C000028F0D10FE008E0AA
:103C0000FFF78EFB801B41F28831884201D90320E7
:103C100078E72748806800F00C000428F0D123489A
:103C2000006800F00700A8420ED92048006820F084
:103C3000070028431D4908600846006800F0070097
:103C4000A84201D001205DE7207800F0040004289C
:103C500007D11748806820F4E060E1680843144900
:103C60008860207800F00800082808D11048806893
:103C700020F46050216940EAC1000D49886000F0DD
:103C800071F80B49896801F0F001F02292FAA2F272
:103C9000B2FA82F2D140074A515CC8400649086036
:103CA0000020FFF757FB00202CE700000020024017
:103CB00000100240B4070108000000200F2202603B
:103CC0000D4A926802F0030242600B4A926802F0C9
:103CD000F0028260084A926802F4E062C260064A1A
:103CE000926802F46052D2080261044A126802F03B
:103CF00007020A60704700000010024000200240E6
:103D000001480068704700000000002000B5FFF780
:103D1000F7FF0749896801F4E0614FF4E06292FA25
:103D2000A2F2B2FA82F2D140024A515CC84000BD10
:103D300000100240C407010800B5FFF7E1FF074982
:103D4000896801F460514FF4605292FAA2F2B2FA1B
:103D500082F2D140024A515CC84000BD00100240CE
:103D6000C4070108F0B50021002300240225022227
:103D70000020554EB66806F00C065EB1524EB6688D
:103D800006F00C060C2E2DD14F4EF66806F00306F9
:103D9000012E27D14C4E366806F008066EB94A4E01
:103DA0009436366806F470664FF4706797FAA7F792
:103DB000B7FA87F726FA07F10AE0434E366806F0AD
:103DC000F006F02797FAA7F7B7FA87F726FA07F170
:103DD0003E4E56F821103C4EB66806F00C0686B9E9
:103DE00008460EE0384EB66806F00C06042E01D1E7
:103DF000374806E0344EB66806F00C06082E00D1AF
:103E00003448314EB66806F00C060C2E5BD12E4EAF
:103E1000F66806F003042C4EF66806F0700670276C
:103E200097FAA7F7B7FA87F7FE40721C012C29D042
:103E3000022C02D0032C24D111E0254EB6FBF2F661
:103E4000214FFF6807F4FE474FF4FE4C9CFAACFC90
:103E5000BCFA8CFC27FA0CF706FB07F323E01D4E97
:103E6000B6FBF2F6184FFF6807F4FE474FF4FE4C1E
:103E70009CFAACFCBCFA8CFC27FA0CF706FB07F3A7
:103E800011E000BFB1FBF2F60F4FFF6807F4FE47E9
:103E90004FF4FE4C9CFAACFCBCFA8CFC27FA0CF7F5
:103EA00006FB07F300BF00BF074EF66806F0C066CA
:103EB0004FF0C06797FAA7F7B7FA87F7FE40761C6E
:103EC0007500B3FBF5F0F0BD00100240CC0701080F
:103ED0000024F40000127A00F8B50446002520788A
:103EE00000F01000102874D1FE48806800F00C002B
:103EF000002870D1FB48006800F0020018B1A069EA
:103F000008B90120F8BDF748216A006800F00800F0
:103F100020B1F448006800F0F00005E0F14894306A
:103F2000006800F47060000981421FD9206A02F025
:103F300031FB08B10120E5E700BFEA48006840F026
:103F40000800E84908600846006820F0F000216A8F
:103F50000843E449086000BF0846406820F47F40F9
:103F6000E16940EA0120DF4948601EE000BFDD480A
:103F7000006840F00800DB4908600846006820F04F
:103F8000F000216A0843D749086000BF084640682E
:103F900020F47F40E16940EA0120D2494860206A6C
:103FA00002F0F8FA08B10120ACE7FFF7DBFECD49DB
:103FB000896801F0F001F02292FAA2F2B2FA82F2DC
:103FC000D140C94A515CC840C84908600020FFF789
:103FD000C1F94BE0FFE7A06980B3C248006840F038
:103FE0000100C0490860FFF79BF9054606E0FFF7AE
:103FF00097F9401B022801D9032083E7B9480068DC
:1040000000F002000028F2D000BFB648006840F07F
:104010000800B44908600846006820F0F000216AF2
:104020000843B049086000BF0846406820F47F405C
:10403000E16940EA0120AB49486017E0FFE7A94881
:10404000006820F00100A7490860FFF769F90546FC
:1040500006E0FFF765F9401B022801D9032051E76C
:10406000A048006800F002000028F2D1207800F09B
:104070000100002868D09B48806800F00C000828E8
:104080000BD09848806800F00C000C280ED19548A1
:10409000C06800F00300032808D19248006800F4CB
:1040A000003088B3606878BB01202BE700BF6068F0
:1040B000B0F5803F06D18B48006840F480308949D4
:1040C00008601AE06068B0F5A02F0BD18548006841
:1040D00040F48020834908600846006840F480303E
:1040E00008600AE07F48006820F480307D4908605D
:1040F0000846006820F48020086000BF606890B126
:10410000FFF70EF9054607E01EE0FFF709F9401B2F
:10411000642801D90320F5E67248006800F40030F5
:104120000028F2D010E0FFF7FBF8054606E0FFF7A5
:10413000F7F8401B642801D90320E3E669480068CA
:1041400000F400300028F2D1207800F002000228AC
:104150006AD16448806800F00C0004280BD06148E4
:10416000806800F00C000C281ED15E48C06800F08A
:104170000300022818D15B48006800F4806018B181
:10418000E06808B90120BDE65648406820F0F850C4
:104190004FF0F85292FAA2F2B2FA82F221699140FB
:1041A0000843504948603FE0E06830B34D4800683C
:1041B00040F480704B490860FFF7B2F8054606E00E
:1041C000FFF7AEF8401B022801D903209AE64548C4
:1041D000006800F480600028F2D04248406820F077
:1041E000F8504FF0F85292FAA2F2B2FA82F2216934
:1041F000914008433B49486016E03A48006820F483
:10420000807038490860FFF78BF8054606E0FFF735
:1042100087F8401B022801D9032073E63148006863
:1042200000F480600028F2D1207800F0080008280F
:1042300036D16069D0B12B489430006840F001005D
:104240002849C1F89400FFF76BF8054606E0FFF730
:1042500067F8401B022801D9032053E62148943017
:10426000006800F002000028F1D019E01D489430E9
:10427000006820F001001B49C1F89400FFF750F8D6
:10428000054606E0FFF74CF8401B022801D9032041
:1042900038E614489430006800F002000028F1D19C
:1042A000207800F0040004286FD100260D48806DAE
:1042B00000F0805070B900BF0A48806D40F0805017
:1042C000084988650846806D00F08050009000BF66
:1042D00000BF01260648006800F48070F8B9044861
:1042E000006807E000100240B40701080000002049
:1042F0000070004040F4807087490860FFF710F8B4
:10430000054606E0FFF70CF8401B022801D9032000
:10431000F8E58148006800F480700028F2D000BF02
:10432000A068012808D17D48006840F001007B4961
:104330009039C1F8900021E0A06805280FD1774896
:10434000006840F0040075499039C1F890000846B3
:10435000D0F8900040F00100C1F890000EE06F48E6
:10436000006820F001006D499039C1F890000846BE
:10437000D0F8900020F00400C1F8900000BFA068C1
:10438000A0B1FEF7CDFF054609E02DE0FEF7C8FF1E
:10439000401B41F28831884201D90320B2E55F48D1
:1043A000006800F002000028F0D012E0FEF7B8FF2D
:1043B000054608E0FEF7B4FF401B41F28831884211
:1043C00001D903209EE55548006800F0020000284E
:1043D000F0D1012E07D151489038806D20F08050E7
:1043E0004E499039886500BFA06AE8B34B489038C1
:1043F000806800F00C000C2879D0A06A022853D104
:1044000046489038006820F0807044499039086030
:10441000FEF786FF054606E0FEF782FF401B0228F6
:1044200001D903206EE53D489038006800F0007027
:104430000028F1D1206B401E0101606B41EA002190
:10444000A06B000941EA4040E16A0843A18F0122C4
:10445000C2EB510140EA41514020005DC2EB5000E7
:1044600041EA40602D4900E053E09039C8600846B9
:10447000006840F0807008600846C06840F08070B6
:10448000C860FEF74DFF054606E0FEF749FF401BFA
:10449000022801D9032035E520489038006800F053
:1044A00000700028F1D034E01C489038006820F0FB
:1044B00080701A49903908600846006800F0006072
:1044C00048B90846006800F0005020B90846C068A6
:1044D00020F00300C86011489038C06810490840B7
:1044E0000E499039C860FEF71BFF054607E00EE055
:1044F000FEF716FF401B022801D9032002E50748FA
:104500009038006800F000700028F1D101E001202F
:10451000F8E40020F6E40000007000409010024033
:10452000FFFFEEFE70B505460B46164600242868D0
:1045300040680E4900EA0104200CD870C4F304203E
:10454000587004F03F009870C4F3423018705EB9A0
:10455000D87802F0FDF8D870587802F0F9F8587061
:10456000987802F0F5F89870002070BD3FFFFF00CA
:1045700070B504460B46164600252068806A5860D0
:1045800020680069C0F30E009860206800680F4939
:1045900000EA0105C5F305401870C5F30620587000
:1045A00005F07F00987005F48000000CD8705EB9AB
:1045B000187802F0CDF81870587802F0C9F85870E1
:1045C000987802F0C5F89870002070BD7F7F7F005A
:1045D00010B504460CB9012010BD94F8210028B98B
:1045E000002084F82000204600F066F8022084F8BD
:1045F000210000BFCA202168486253202168486218
:1046000000BF204602F0BCF848B100BFFF2021687F
:10461000486200BF042084F821000120DCE7206804
:1046200080682449084021688860216960680843DF
:10463000A169084321688968084321688860216866
:10464000E068086120680169208941EA004021682A
:1046500008612068C06820F080002168C860206878
:10466000806800F0200068B9204600F06DF948B17C
:1046700000BFFF202168486200BF042084F82100A9
:104680000120A9E72068C06C20F003002168C864FD
:104690006169E06908432168C96C08432168C864FE
:1046A00000BFFF202168486200BF012084F821007C
:1046B000002091E7BFFF8FFF064A0168914207D1B2
:1046C0000549096841F40041034A903AC2F8901044
:1046D0007047000000280040901002402DE9F04192
:1046E00004460D461646002700BF94F82000012816
:1046F00002D10220BDE8F081012084F8200000BF33
:10470000022084F821004EB9687800F010001028CB
:1047100004D1687800F0EF000A30687086B9E87854
:1047200002F021F80304687802F01DF843EA002340
:10473000A87802F018F80343287843EA403711E0DC
:10474000687802F005F80746A87802F001F80746F5
:10475000E8780004697840EA0120A97808432978BC
:1047600040EA413700BFCA202168486253202168CF
:10477000486200BF204602F003F870B100BFFF207E
:104780002168486200BF042084F8210000BF002097
:1047900084F8200000BF0120ACE7184838402168A9
:1047A00048602068C06820F080002168C8602068E8
:1047B000806800F0200090B9204600F0C5F870B184
:1047C00000BFFF202168486200BF042084F8210058
:1047D00000BF002084F8200000BF01208AE700BF4E
:1047E000FF202168486200BF012084F8210000BF3B
:1047F000002084F8200000BF00BF7BE73FFFFF00E0
:104800002DE9F04104460D461646002700BF94F8F6
:104810002000012802D10220BDE8F081012084F8A7
:10482000200000BF022084F82100CEB920688068F3
:1048300000F0400000B102E00020E87000BF2878DE
:1048400001F091FF0304687801F08DFF43EA002333
:10485000A87801F088FF0343E87843EA004716E0B0
:104860002068806800F0400020B1287801F070FFD7
:10487000074602E00020E87000BF2878000469784D
:1048800040EA0120A9780843E97840EA014700BFDF
:10489000CA202168486253202168486200BF204630
:1048A00001F06EFF70B100BFFF202168486200BFB9
:1048B000042084F8210000BF002084F8200000BFFD
:1048C0000120A9E71F4838402168086020688068F7
:1048D00020F4802021688860D5E90301084321681D
:1048E00089680843216888602068C06820F08000DB
:1048F0002168C8602068806800F0200090B92046D8
:1049000000F022F870B100BFFF202168486200BFAC
:10491000042084F8210000BF002084F8200000BF9C
:10492000012079E700BFFF202168486200BF012015
:1049300084F8210000BF002084F8200000BF00BFE1
:104940006AE700007F7F7F0070B50446002520687D
:10495000C06820F0A0002168C860FEF7E1FC0546B1
:1049600007E0FEF7DDFC401BB0F57A7F01D903209C
:1049700070BD2068C06800F020000028F1D0002041
:10498000F6E7014691F85D00704770B504460CB932
:10499000012070BD606A00B900BF0021A16294F8D7
:1049A0005D0028B9002084F85C00204600F04EF835
:1049B000022084F85D002068006820F04000216833
:1049C0000860E068B0F5E06F01D9002501E04FF420
:1049D0008055E068B0F5706F05D0E068B0F5E06F25
:1049E00001D00021A162206B40B9E068B0F5E06F12
:1049F00002D90221216301E001212163D4E90101EF
:104A000008432169084361690843218B01F400715F
:104A10000843E1690843216A0843A16A0843216801
:104A200008600421A06901EA1040616A0843616BD3
:104A30000843E16808432843216848600020206655
:104A4000012084F85D000020A3E7000010B586B0C7
:104A500004461149206888421CD100BF0F48806D70
:104A600040F400400D4988650846806D00F4004020
:104A7000009000BF00BF4FF4E05001900220029070
:104A800000200390032004900620059001A904480B
:104A9000FEF734FB06B010BD003C004000100240A1
:104AA000000800482DE9FC5F04460D4616461F46E7
:104AB000DDF830804FF0000A0020019081464FF071
:104AC000010B009000BF94F85C00012802D1022085
:104AD00000F02CB9012084F85C0000BFFEF720FC38
:104AE000814694F85DA060680190BAF1010F0BD087
:104AF0000198B0F5827F04D1A06810B9BAF1040F13
:104B000002D00220009007E10DB106B117B90120D3
:104B1000009001E194F85D00042802D0052084F89B
:104B20005D00002020662664A4F84670A4F8447056
:104B3000A563E787A787E0642065E068B0F5E06FCC
:104B400003D8B4F84600012806D92068406820F44C
:104B500080502168486005E02068406840F480503B
:104B6000216848602068006800F04000402805D0B7
:104B70002068006840F0400021680860E068B0F5F7
:104B8000E06F47D9606810B1E08F012806D128880E
:104B90002168C860AD1CE08F401EE08732E0BBF1A9
:104BA000000F10D0E08F70B12068806800F0020024
:104BB000022808D128882168C860AD1CE08F401EFB
:104BC000E0874FF0000BB4F8460078B120688068A9
:104BD00000F0010050B12068C0683080B61CB4F805
:104BE0004600401EA4F846004FF0010B08F10100FA
:104BF00040B1FEF795FBA0EB0900404502D303202E
:104C0000009089E0E08F0028C9D1B4F84600002860
:104C1000C5D174E0606810B1E08F012811D1E08F38
:104C2000012807D928882168C860AD1CE08F801E44
:104C3000E08706E015F8010B21680873E08F401E3D
:104C4000E08755E0BBF1000F1BD0E08FC8B12068B2
:104C5000806800F00200022813D1E08F012807D9F4
:104C600028882168C860AD1CE08F801EE08706E0C0
:104C700015F8010B21680873E08F401EE0874FF0A4
:104C8000000BB4F8460038B32068806800F00100DB
:104C900010B3B4F84600012813D92068C0683080EA
:104CA000B61CB4F84600801EA4F84600B4F84600CE
:104CB00001280FD82068406840F48050216848607F
:104CC00008E02068007B06F8010BB4F84600401E9F
:104CD000A4F846004FF0010B08F1010040B1FEF7C7
:104CE0001FFBA0EB0900404502D30320009013E016
:104CF000E08F0028A6D1B4F846000028A2D14A4689
:104D00004146204601F05BFD08B120202066206E60
:104D100008B10120009000BF012084F85D0000BFB1
:104D2000002084F85C0000BF0098D1E63CBCBDE8E0
:104D3000C09F042808D14FF0E021096941F0040127
:104D40004FF0E022116107E04FF0E021096921F006
:104D500004014FF0E0221161704770B5044625460A
:104D6000681EB0F1807F01D301200FE0681E4FF074
:104D7000E02148610F214FF0FF3001F009FA0020D7
:104D80004FF0E021886107200861002070BD704766
:104D90007047000030B502460B4600BF92F838005D
:104DA000012801D1022030BD012082F8380000BF67
:104DB00010684168106884680F4D1068A84203D0DD
:104DC0000E4D1068A84203D121F4700158680143C8
:104DD00021F070011868014324F0800498680443AE
:104DE000106841601068846000BF002082F83800BD
:104DF00000BF00BFD7E70000002C01400034014095
:104E000010B504460CB9012010BD94F8390028B93A
:104E1000002084F83800204600F00CF8022084F8C6
:104E20003900211D206802F0F5FA012084F83900CC
:104E30000020E9E738B504461A492068884216D1AF
:104E400000BF1948806D40F010001749886508467A
:104E5000806D00F01000009000BF00BF002205210F
:104E60003620FEF72CFB3620FEF71CFB19E00F491D
:104E70002068884215D100BF0B48806D40F02000AB
:104E8000094988650846806D00F02000009000BF49
:104E900000BF002201213720FEF711FB3720FEF76B
:104EA00001FB38BD0010004000100240001400401B
:104EB00001460868C06840F001000A68D0600868D0
:104EC000006840F001000A681060002070477047D9
:104ED00010B5044620680069C0F34000D8B12068CE
:104EE000C068C0F34000B0B16FF0020021680861F3
:104EF000012020762068806900F0030018B1204668
:104F0000FFF7E5FF05E0204600F0ADF8204600F091
:104F1000ABF80020207620680069C0F38000D8B18B
:104F20002068C068C0F38000B0B16FF00400216851
:104F30000861022020762068806900F4407018B172
:104F40002046FFF7C4FF05E0204600F08CF820461D
:104F500000F08AF80020207620680069C0F3C000C5
:104F6000D8B12068C068C0F3C000B0B16FF00800CD
:104F700021680861042020762068C06900F00300E1
:104F800018B12046FFF7A3FF05E0204600F06BF8BC
:104F9000204600F069F80020207620680069C0F300
:104FA0000010D8B12068C068C0F30010B0B16FF035
:104FB000100021680861082020762068C06900F48C
:104FC000407018B12046FFF782FF05E0204600F050
:104FD0004AF8204600F048F8002020762068006952
:104FE00000F0010058B12068C06800F0010030B145
:104FF0006FF0010021680861204600F037F8206852
:105000000069C0F3C01058B12068C068C0F3C01078
:1050100030B16FF08000216808612046FFF7B7FECD
:1050200020680069C0F3801058B12068C068C0F3E0
:10503000801030B16FF0400021680861204600F018
:10504000C9F920680069C0F3401058B12068C068F1
:10505000C0F3401030B16FF0200021680861204695
:10506000FFF796FE10BD70477047000010B504466C
:1050700004492068884201D1FEF758F9204600F023
:1050800003F810BD004801403EB50546A3488542DF
:1050900041D1A3480088A249C9880844A049898908
:1050A0000844032190FBF1F09E499F4A128821F8A1
:1050B00012009B484188008901449948C0890844EE
:1050C000032190FBF1F081B29848974A128820F8AA
:1050D000121093488188408901449148008A08440D
:1050E000032190FBF1F081B291488F4A128820F899
:1050F00012108D480088401C8B49088008460088A3
:10510000B0F5FA5F01DB002008806FF001008349F1
:10511000096808613EBD874885427CD18648008881
:10512000401C854908808548006880F080008349DC
:1051300008600020029082480078012807D081484A
:105140000078012803D08048007801281AD17F48D0
:10515000007879490988CDE900107B4803787948BF
:105160000278774801787A4802F078FE774800782C
:10517000401C7649087008460078322801DDFEF7A9
:10518000F3F9C7E70020714908706B48008871493E
:10519000098890FBF1F201FB1200002844D1664817
:1051A0000088002840D001206B4908705E480088C4
:1051B0006A4908805C48008800B2694908806948EB
:1051C0000078012804D0022808D0032812D10BE06F
:1051D00059480088C01C644908800FE05648008880
:1051E0000A306149088009E05348008811305E495F
:1051F000088003E000205C49088000BF00BF02ABCC
:1052000002225A4801685A480BF0BAFA04465CB1C7
:10521000029848B100E07FE04FF0805055490860A7
:10522000BFF34F8FBFF36F8F434800884E49098803
:10523000884208D1404801884FA002F00FFE0121AA
:10524000554808F087FC474800782B2101EB4000C7
:105250003949098891FBF0F200FB121088B94F48D8
:10526000008870B9344800883F490988884208D0CE
:10527000314801884AA002F0F1FDE121464808F0DA
:1052800069FC2D4800884FF4616190FBF1F201FB4D
:10529000120050B92848008838B1274800883249A0
:1052A0000988884201D007F099F82B48007890BB14
:1052B00021480088112190FBF1F201FB120050BB44
:1052C0001D48008838B31C4800882249098890FB93
:1052D000F1F201FB1200F0B130480088D8B9124851
:1052E00000881E4908801048008800B21C490880C8
:1052F00002AB02221D4801681D480BF041FA04462A
:105300004CB1029838B14FF080501A490860BFF391
:105310004F8FBFF36F8F00BF00BFFBE620FF002061
:10532000CCF500204C0D002016000020CC4B0020B6
:105330004C8A0020E4FE00203400002014040048C1
:105340002400002025000020080000204C00002040
:10535000E808010836000020280000202000002076
:105360002A00002029090020380000201C09002004
:10537000CDEF000804ED00E00A2D2D2D2D2D2D6D13
:10538000795F74696D365F636F756E74363D256441
:10539000202D2D2D2D2D0A00040900203C00002079
:1053A0003D3D73656E6420636F6E66696720706152
:1053B00072616D65746572A3AC6D795F74696D36E9
:1053C0005F636F756E743D2564202121212D2D3280
:1053D0000A00000070477047704700002DE9F04157
:1053E00004462068C5692068066805F00F08B8F112
:1053F000000F0AD105F0200038B106F0200020B1DE
:10540000204602F049F9BDE8F08120688768B8F1CC
:10541000000F7DD007F0010018B906F49070002845
:1054200076D005F0010048B106F4807030B101205B
:1054300021680862E06E40F00100E06605F00200BD
:1054400048B107F0010030B1022021680862E06E27
:1054500040F00400E06605F0040048B107F00100E8
:1054600030B1042021680862E06E40F00200E0667E
:1054700005F0080060B106F0200010B907F0010047
:1054800030B1082021680862E06E40F00800E06654
:10549000E06E68B305F0200028B106F0200010B1DE
:1054A000204602F0F9F8E06E00F0080028B9206804
:1054B000806800F04000402824D1204602F0CCF85B
:1054C0002068806800F04000402817D1206880687C
:1054D00020F0400021688860606E58B12248616EFB
:1054E0008863606EFDF7FCF910B1606E816B8847D0
:1054F0000DE00DE02046FFF76FFF08E02046FFF7C4
:105500006BFF04E02046FFF767FF0020E0667AE7C4
:105510002068876805F4801078B107F4800060B1D6
:105520004FF4801021680862202084F8690084F814
:105530006A002046FFF74FFF65E705F0800030B1B5
:1055400006F0800018B1204602F033FB5BE705F05F
:10555000400030B106F0400018B1204602F08CF84F
:1055600051E700BF4FE700004176000810B5044640
:105570000CB9012010BDA06900B100E000BF94F893
:10558000690028B9002084F86800204600F02AF855
:10559000242084F869002068006820F00100216858
:1055A0000860204602F0BEF8012800D1E2E7606AF8
:1055B00010B1204601F08EFF2068406820F4904032
:1055C000216848602068806820F02A00216888608F
:1055D0002068006840F0010021680860204601F062
:1055E000F5FFC7E710B586B0044615492068884224
:1055F00024D100BF1348806D40F400301149886504
:105600000846806D00F40030009000BF00BF0C2001
:1056100001900220029001200390032004900720B3
:10562000059001A94FF09040FDF768FD002205218B
:105630002620FDF744FF2620FDF734FF06B010BDFD
:10564000004400400010024010B5034693F86A0081
:10565000202855D101B10AB9012010BD00BF93F82F
:105660006800012801D10220F7E7012083F86800D3
:1056700000BF5965A3F85820A3F85A2000BF9868C6
:10568000B0F5805F0AD1186920B940F2FF10A3F885
:105690005C001CE0FF20A3F85C0018E0986848B9A3
:1056A000186918B9FF20A3F85C0010E07F20A3F868
:1056B0005C000CE09868B0F1805F08D1186918B9F7
:1056C0007F20A3F85C0002E03F20A3F85C0000BF4D
:1056D0000020D866222083F86A0000BF002083F8EB
:1056E000680000BF1868806840F001001C68A06076
:1056F0001868006840F490701C6820600020ACE7D7
:105700000220AAE72DE9F843054600270026B04607
:10571000002000902248854240D122482249098831
:1057200010F8018020480088401C1F490880084666
:105730000088C82801DB0020088008201849096873
:105740000862B8F1160F12D16B46022217480168A1
:1057500017480BF015F804464CB1009838B14FF0DB
:10576000805014490860BFF34F8FBFF36F8F00BFA5
:10577000701C86B240F6FF70864203DB01200E49A2
:1057800008700AE00748084A128881180122044874
:10579000FFF75AFF0746002FEAD100BFBDE8F883A4
:1057A000980B0020200C0020120000201809002077
:1057B000CDEF000804ED00E0490000202DE9F8439A
:1057C00004460D4616461F464FF0000994F869003E
:1057D000202854D105B116B90120BDE8F88300BFD7
:1057E00094F86800012801D10220F6E7012084F82E
:1057F000680000BF00205034E06121206076FDF792
:105800008FFD814626806680503C21E0B4F852002E
:10581000401EA4F852004B460022802120460097EB
:1058200002F0FCF908B10320D7E7A068B0F5805F6B
:105830000AD1206940B9A846B8F80000C0F30800B2
:1058400021680885AD1C03E015F8010B2168088567
:10585000B4F852000028D9DC4B46002240212046F3
:10586000009702F0DBF908B10320B6E7202084F8A6
:10587000690000BF002084F8680000BFADE7022087
:10588000ABE7704702A002F0E9FA00F095FC0000D7
:105890000A203D3D3D486172644661756C745F4805
:1058A000616E646C65723D3D3D3D0A002DE9F84F27
:1058B0008046894692460025CDF800804C46AB468E
:1058C00032E0E6780027380240EA16603302A17819
:1058D0005E1840F10007390241EA16613302607830
:1058E0001E1841F10007380240EA166033022178A1
:1058F0005E1840F10007241D2846691C8DB20F492F
:1059000001EBC002C0C2B5F5807F09D100254FF47C
:105910008072009801F060F8009800F50060009037
:105920000BF104001FFA80FBD345CAD325B12A46E8
:105930000249009801F050F800F002B8102301204D
:1059400018BCBDE8E08F000000B589B0514852494D
:1059500008600020486000214F488160C16001213B
:10596000016104214161002181610121C16108219E
:1059700001620021416201218162C1620021016353
:105980000121416300218163C163FCF715FB18B15C
:105990005B2142A002F060FA0020069006A93E4872
:1059A000FBF764FF18B163213CA002F055FA112007
:1059B00000900120019007200290002003900490A5
:1059C000059069463448FBF7FDFF18B1702133A0FC
:1059D00002F042FA122000900220019069462E48FF
:1059E000FBF7F0FF18B179212CA002F035FA002066
:1059F00000900320019069462748FBF7E3FF18B1A8
:105A0000822126A002F028FA0F20009004200190A5
:105A100069462148FBF7D6FF18B18B211FA002F081
:105A20001BFA0B2000900520019069461A48FBF7ED
:105A3000C9FF18B1942119A002F00EFA0D200090B0
:105A40000620019069461448FBF7BCFF18B19D2160
:105A500012A002F001FA0E20009007200190694682
:105A60000D48FBF7AFFF18B1A6210CA002F0F4F926
:105A70000C20009008200190002002906946064802
:105A8000FBF7A0FF18B1B02104A002F0E5F909B0BE
:105A900000BD000000000450380A00202E2E2F53B5
:105AA00072632F6164632E630000000000B587B04D
:105AB00029482A4908600020486000212748816061
:105AC000C160012101610421416100218161012145
:105AD000C161032101620021416201218162C16231
